{
  "_format": "hh-sol-artifact-1",
  "contractName": "GovtProjectToken",
  "sourceName": "contracts/GovtProjectToken.sol.sol",
  "abi": [
    {
      "inputs": [
        {
          "internalType": "uint256",
          "name": "_initialSupply",
          "type": "uint256"
        },
        {
          "internalType": "uint256",
          "name": "_requiredSignaturesForApproval",
          "type": "uint256"
        }
      ],
      "stateMutability": "nonpayable",
      "type": "constructor"
    },
    {
      "anonymous": false,
      "inputs": [
        {
          "indexed": true,
          "internalType": "uint256",
          "name": "burnId",
          "type": "uint256"
        },
        {
          "indexed": true,
          "internalType": "address",
          "name": "from",
          "type": "address"
        },
        {
          "indexed": false,
          "internalType": "uint256",
          "name": "amount",
          "type": "uint256"
        },
        {
          "indexed": false,
          "internalType": "string",
          "name": "bankDetails",
          "type": "string"
        }
      ],
      "name": "BurnRequestApproved",
      "type": "event"
    },
    {
      "anonymous": false,
      "inputs": [
        {
          "indexed": true,
          "internalType": "uint256",
          "name": "burnId",
          "type": "uint256"
        },
        {
          "indexed": true,
          "internalType": "address",
          "name": "from",
          "type": "address"
        },
        {
          "indexed": false,
          "internalType": "uint256",
          "name": "amount",
          "type": "uint256"
        }
      ],
      "name": "BurnRequestCreated",
      "type": "event"
    },
    {
      "anonymous": false,
      "inputs": [
        {
          "indexed": true,
          "internalType": "address",
          "name": "to",
          "type": "address"
        },
        {
          "indexed": false,
          "internalType": "uint256",
          "name": "amount",
          "type": "uint256"
        }
      ],
      "name": "TokensMinted",
      "type": "event"
    },
    {
      "anonymous": false,
      "inputs": [
        {
          "indexed": true,
          "internalType": "uint256",
          "name": "requestId",
          "type": "uint256"
        },
        {
          "indexed": true,
          "internalType": "address",
          "name": "signer",
          "type": "address"
        }
      ],
      "name": "TransferApproved",
      "type": "event"
    },
    {
      "anonymous": false,
      "inputs": [
        {
          "indexed": true,
          "internalType": "uint256",
          "name": "requestId",
          "type": "uint256"
        }
      ],
      "name": "TransferCompleted",
      "type": "event"
    },
    {
      "anonymous": false,
      "inputs": [
        {
          "indexed": true,
          "internalType": "uint256",
          "name": "requestId",
          "type": "uint256"
        },
        {
          "indexed": true,
          "internalType": "address",
          "name": "from",
          "type": "address"
        },
        {
          "indexed": true,
          "internalType": "address",
          "name": "to",
          "type": "address"
        },
        {
          "indexed": false,
          "internalType": "uint256",
          "name": "amount",
          "type": "uint256"
        },
        {
          "indexed": false,
          "internalType": "string",
          "name": "billHash",
          "type": "string"
        }
      ],
      "name": "TransferRequestCreated",
      "type": "event"
    },
    {
      "inputs": [
        {
          "internalType": "address",
          "name": "_signer",
          "type": "address"
        }
      ],
      "name": "addSigner",
      "outputs": [],
      "stateMutability": "nonpayable",
      "type": "function"
    },
    {
      "inputs": [],
      "name": "admin",
      "outputs": [
        {
          "internalType": "address",
          "name": "",
          "type": "address"
        }
      ],
      "stateMutability": "view",
      "type": "function"
    },
    {
      "inputs": [
        {
          "internalType": "uint256",
          "name": "_burnId",
          "type": "uint256"
        }
      ],
      "name": "approveBurn",
      "outputs": [],
      "stateMutability": "nonpayable",
      "type": "function"
    },
    {
      "inputs": [
        {
          "internalType": "uint256",
          "name": "_requestId",
          "type": "uint256"
        }
      ],
      "name": "approveTransfer",
      "outputs": [],
      "stateMutability": "nonpayable",
      "type": "function"
    },
    {
      "inputs": [
        {
          "internalType": "address",
          "name": "",
          "type": "address"
        }
      ],
      "name": "balanceOf",
      "outputs": [
        {
          "internalType": "uint256",
          "name": "",
          "type": "uint256"
        }
      ],
      "stateMutability": "view",
      "type": "function"
    },
    {
      "inputs": [
        {
          "internalType": "uint256",
          "name": "",
          "type": "uint256"
        }
      ],
      "name": "burnRequests",
      "outputs": [
        {
          "internalType": "uint256",
          "name": "id",
          "type": "uint256"
        },
        {
          "internalType": "address",
          "name": "from",
          "type": "address"
        },
        {
          "internalType": "uint256",
          "name": "amount",
          "type": "uint256"
        },
        {
          "internalType": "string",
          "name": "bankDetails",
          "type": "string"
        },
        {
          "internalType": "enum GovtProjectToken.RequestStatus",
          "name": "status",
          "type": "uint8"
        },
        {
          "internalType": "uint256",
          "name": "approvalCount",
          "type": "uint256"
        }
      ],
      "stateMutability": "view",
      "type": "function"
    },
    {
      "inputs": [],
      "name": "decimals",
      "outputs": [
        {
          "internalType": "uint8",
          "name": "",
          "type": "uint8"
        }
      ],
      "stateMutability": "view",
      "type": "function"
    },
    {
      "inputs": [
        {
          "internalType": "uint256",
          "name": "_amount",
          "type": "uint256"
        },
        {
          "internalType": "string",
          "name": "_bankDetails",
          "type": "string"
        }
      ],
      "name": "initiateBurn",
      "outputs": [],
      "stateMutability": "nonpayable",
      "type": "function"
    },
    {
      "inputs": [
        {
          "internalType": "address",
          "name": "_to",
          "type": "address"
        },
        {
          "internalType": "uint256",
          "name": "_amount",
          "type": "uint256"
        },
        {
          "internalType": "string",
          "name": "_billHash",
          "type": "string"
        }
      ],
      "name": "initiateTransfer",
      "outputs": [],
      "stateMutability": "nonpayable",
      "type": "function"
    },
    {
      "inputs": [
        {
          "internalType": "address",
          "name": "",
          "type": "address"
        }
      ],
      "name": "isSigner",
      "outputs": [
        {
          "internalType": "bool",
          "name": "",
          "type": "bool"
        }
      ],
      "stateMutability": "view",
      "type": "function"
    },
    {
      "inputs": [],
      "name": "name",
      "outputs": [
        {
          "internalType": "string",
          "name": "",
          "type": "string"
        }
      ],
      "stateMutability": "view",
      "type": "function"
    },
    {
      "inputs": [
        {
          "internalType": "address",
          "name": "_signer",
          "type": "address"
        }
      ],
      "name": "removeSigner",
      "outputs": [],
      "stateMutability": "nonpayable",
      "type": "function"
    },
    {
      "inputs": [],
      "name": "requiredSignatures",
      "outputs": [
        {
          "internalType": "uint256",
          "name": "",
          "type": "uint256"
        }
      ],
      "stateMutability": "view",
      "type": "function"
    },
    {
      "inputs": [],
      "name": "symbol",
      "outputs": [
        {
          "internalType": "string",
          "name": "",
          "type": "string"
        }
      ],
      "stateMutability": "view",
      "type": "function"
    },
    {
      "inputs": [],
      "name": "totalSupply",
      "outputs": [
        {
          "internalType": "uint256",
          "name": "",
          "type": "uint256"
        }
      ],
      "stateMutability": "view",
      "type": "function"
    },
    {
      "inputs": [
        {
          "internalType": "uint256",
          "name": "",
          "type": "uint256"
        }
      ],
      "name": "transferRequests",
      "outputs": [
        {
          "internalType": "uint256",
          "name": "id",
          "type": "uint256"
        },
        {
          "internalType": "address",
          "name": "from",
          "type": "address"
        },
        {
          "internalType": "address",
          "name": "to",
          "type": "address"
        },
        {
          "internalType": "uint256",
          "name": "amount",
          "type": "uint256"
        },
        {
          "internalType": "string",
          "name": "billHash",
          "type": "string"
        },
        {
          "internalType": "enum GovtProjectToken.RequestStatus",
          "name": "status",
          "type": "uint8"
        },
        {
          "internalType": "uint256",
          "name": "approvalCount",
          "type": "uint256"
        }
      ],
      "stateMutability": "view",
      "type": "function"
    }
  ],
  "bytecode": "0x60806040526040518060400160405280601281526020017f476f76742050726f6a65637420546f6b656e0000000000000000000000000000815250600190816200004a9190620004c0565b506040518060400160405280600381526020017f475054000000000000000000000000000000000000000000000000000000000081525060029081620000919190620004c0565b506012600360006101000a81548160ff021916908360ff16021790555060016009556001600b55348015620000c557600080fd5b5060405162002df738038062002df78339818101604052810190620000eb9190620005dd565b336000806101000a81548173ffffffffffffffffffffffffffffffffffffffff021916908373ffffffffffffffffffffffffffffffffffffffff160217905550806007819055506000600360009054906101000a900460ff16600a620001529190620007b4565b836200015f919062000805565b90508060048190555080600560008060009054906101000a900473ffffffffffffffffffffffffffffffffffffffff1673ffffffffffffffffffffffffffffffffffffffff1673ffffffffffffffffffffffffffffffffffffffff1681526020019081526020016000208190555060008054906101000a900473ffffffffffffffffffffffffffffffffffffffff1673ffffffffffffffffffffffffffffffffffffffff167f3f2c9d57c068687834f0de942a9babb9e5acab57d516d3480a3c16ee165a42738260405162000235919062000861565b60405180910390a25050506200087e565b600081519050919050565b7f4e487b7100000000000000000000000000000000000000000000000000000000600052604160045260246000fd5b7f4e487b7100000000000000000000000000000000000000000000000000000000600052602260045260246000fd5b60006002820490506001821680620002c857607f821691505b602082108103620002de57620002dd62000280565b5b50919050565b60008190508160005260206000209050919050565b60006020601f8301049050919050565b600082821b905092915050565b600060088302620003487fffffffffffffffffffffffffffffffffffffffffffffffffffffffffffffffff8262000309565b62000354868362000309565b95508019841693508086168417925050509392505050565b6000819050919050565b6000819050919050565b6000620003a16200039b62000395846200036c565b62000376565b6200036c565b9050919050565b6000819050919050565b620003bd8362000380565b620003d5620003cc82620003a8565b84845462000316565b825550505050565b600090565b620003ec620003dd565b620003f9818484620003b2565b505050565b5b81811015620004215762000415600082620003e2565b600181019050620003ff565b5050565b601f82111562000470576200043a81620002e4565b6200044584620002f9565b8101602085101562000455578190505b6200046d6200046485620002f9565b830182620003fe565b50505b505050565b600082821c905092915050565b6000620004956000198460080262000475565b1980831691505092915050565b6000620004b0838362000482565b9150826002028217905092915050565b620004cb8262000246565b67ffffffffffffffff811115620004e757620004e662000251565b5b620004f38254620002af565b6200050082828562000425565b600060209050601f83116001811462000538576000841562000523578287015190505b6200052f8582620004a2565b8655506200059f565b601f1984166200054886620002e4565b60005b8281101562000572578489015182556001820191506020850194506020810190506200054b565b868310156200059257848901516200058e601f89168262000482565b8355505b6001600288020188555050505b505050505050565b600080fd5b620005b7816200036c565b8114620005c357600080fd5b50565b600081519050620005d781620005ac565b92915050565b60008060408385031215620005f757620005f6620005a7565b5b60006200060785828601620005c6565b92505060206200061a85828601620005c6565b9150509250929050565b7f4e487b7100000000000000000000000000000000000000000000000000000000600052601160045260246000fd5b60008160011c9050919050565b6000808291508390505b6001851115620006b2578086048111156200068a576200068962000624565b5b60018516156200069a5780820291505b8081029050620006aa8562000653565b94506200066a565b94509492505050565b600082620006cd5760019050620007a0565b81620006dd5760009050620007a0565b8160018114620006f65760028114620007015762000737565b6001915050620007a0565b60ff84111562000716576200071562000624565b5b8360020a91508482111562000730576200072f62000624565b5b50620007a0565b5060208310610133831016604e8410600b8410161715620007715782820a9050838111156200076b576200076a62000624565b5b620007a0565b62000780848484600162000660565b925090508184048111156200079a576200079962000624565b5b81810290505b9392505050565b600060ff82169050919050565b6000620007c1826200036c565b9150620007ce83620007a7565b9250620007fd7fffffffffffffffffffffffffffffffffffffffffffffffffffffffffffffffff8484620006bb565b905092915050565b600062000812826200036c565b91506200081f836200036c565b92508282026200082f816200036c565b9150828204841483151762000849576200084862000624565b5b5092915050565b6200085b816200036c565b82525050565b600060208201905062000878600083018462000850565b92915050565b612569806200088e6000396000f3fe608060405234801561001057600080fd5b50600436106101005760003560e01c80637df73e2711610097578063a1bc28e711610066578063a1bc28e7146102ba578063cacca4a0146102d6578063eb12d61e146102f2578063f851a4401461030e57610100565b80637df73e2714610232578063827eea00146102625780638d0680431461027e57806395d89b411461029c57610100565b8063279fc10b116100d3578063279fc10b14610193578063313ce567146101af5780636406c10c146101cd57806370a082311461020257610100565b806303486c401461010557806306fdde031461013b5780630e316ab71461015957806318160ddd14610175575b600080fd5b61011f600480360381019061011a9190611607565b61032c565b604051610132979695949392919061178b565b60405180910390f35b610143610443565b6040516101509190611801565b60405180910390f35b610173600480360381019061016e919061184f565b6104d1565b005b61017d6105ba565b60405161018a919061187c565b60405180910390f35b6101ad60048036038101906101a891906118fc565b6105c0565b005b6101b7610760565b6040516101c49190611978565b60405180910390f35b6101e760048036038101906101e29190611607565b610773565b6040516101f996959493929190611993565b60405180910390f35b61021c6004803603810190610217919061184f565b610864565b604051610229919061187c565b60405180910390f35b61024c6004803603810190610247919061184f565b61087c565b6040516102599190611a16565b60405180910390f35b61027c60048036038101906102779190611607565b61089c565b005b610286610cea565b604051610293919061187c565b60405180910390f35b6102a4610cf0565b6040516102b19190611801565b60405180910390f35b6102d460048036038101906102cf9190611a31565b610d7e565b005b6102f060048036038101906102eb9190611607565b610fec565b005b61030c6004803603810190610307919061184f565b6114ba565b005b6103166115a3565b6040516103239190611aa5565b60405180910390f35b60086020528060005260406000206000915090508060000154908060010160009054906101000a900473ffffffffffffffffffffffffffffffffffffffff16908060020160009054906101000a900473ffffffffffffffffffffffffffffffffffffffff16908060030154908060040180546103a790611aef565b80601f01602080910402602001604051908101604052809291908181526020018280546103d390611aef565b80156104205780601f106103f557610100808354040283529160200191610420565b820191906000526020600020905b81548152906001019060200180831161040357829003601f168201915b5050505050908060050160009054906101000a900460ff16908060060154905087565b6001805461045090611aef565b80601f016020809104026020016040519081016040528092919081815260200182805461047c90611aef565b80156104c95780601f1061049e576101008083540402835291602001916104c9565b820191906000526020600020905b8154815290600101906020018083116104ac57829003601f168201915b505050505081565b60008054906101000a900473ffffffffffffffffffffffffffffffffffffffff1673ffffffffffffffffffffffffffffffffffffffff163373ffffffffffffffffffffffffffffffffffffffff161461055f576040517f08c379a000000000000000000000000000000000000000000000000000000000815260040161055690611b6c565b60405180910390fd5b6000600660008373ffffffffffffffffffffffffffffffffffffffff1673ffffffffffffffffffffffffffffffffffffffff16815260200190815260200160002060006101000a81548160ff02191690831515021790555050565b60045481565b82600560003373ffffffffffffffffffffffffffffffffffffffff1673ffffffffffffffffffffffffffffffffffffffff168152602001908152602001600020541015610642576040517f08c379a000000000000000000000000000000000000000000000000000000000815260040161063990611bd8565b60405180910390fd5b6000600b600081548092919061065790611c27565b9190505590506000600a60008381526020019081526020016000209050818160000181905550338160010160006101000a81548173ffffffffffffffffffffffffffffffffffffffff021916908373ffffffffffffffffffffffffffffffffffffffff16021790555084816002018190555083838260030191826106dc929190611e55565b5060008160040160006101000a81548160ff0219169083600381111561070557610704611714565b5b02179055503373ffffffffffffffffffffffffffffffffffffffff16827f9b1102c54bc036b5e814706f534f1ad7928b4e2fe29ef32b324a4f0d401755f487604051610751919061187c565b60405180910390a35050505050565b600360009054906101000a900460ff1681565b600a6020528060005260406000206000915090508060000154908060010160009054906101000a900473ffffffffffffffffffffffffffffffffffffffff16908060020154908060030180546107c890611aef565b80601f01602080910402602001604051908101604052809291908181526020018280546107f490611aef565b80156108415780601f1061081657610100808354040283529160200191610841565b820191906000526020600020905b81548152906001019060200180831161082457829003601f168201915b5050505050908060040160009054906101000a900460ff16908060050154905086565b60056020528060005260406000206000915090505481565b60066020528060005260406000206000915054906101000a900460ff1681565b600660003373ffffffffffffffffffffffffffffffffffffffff1673ffffffffffffffffffffffffffffffffffffffff16815260200190815260200160002060009054906101000a900460ff16610928576040517f08c379a000000000000000000000000000000000000000000000000000000000815260040161091f90611f71565b60405180910390fd5b6000600a600083815260200190815260200160002090506000816000015403610986576040517f08c379a000000000000000000000000000000000000000000000000000000000815260040161097d90611fdd565b60405180910390fd5b6000600381111561099a57610999611714565b5b8160040160009054906101000a900460ff1660038111156109be576109bd611714565b5b146109fe576040517f08c379a00000000000000000000000000000000000000000000000000000000081526004016109f590612049565b60405180910390fd5b8060060160003373ffffffffffffffffffffffffffffffffffffffff1673ffffffffffffffffffffffffffffffffffffffff16815260200190815260200160002060009054906101000a900460ff1615610a8d576040517f08c379a0000000000000000000000000000000000000000000000000000000008152600401610a84906120b5565b60405180910390fd5b60018160060160003373ffffffffffffffffffffffffffffffffffffffff1673ffffffffffffffffffffffffffffffffffffffff16815260200190815260200160002060006101000a81548160ff021916908315150217905550806005016000815480929190610afc90611c27565b9190505550600754816005015410610ce65760018160040160006101000a81548160ff02191690836003811115610b3657610b35611714565b5b021790555060008160010160009054906101000a900473ffffffffffffffffffffffffffffffffffffffff16905060008260020154905080600560008473ffffffffffffffffffffffffffffffffffffffff1673ffffffffffffffffffffffffffffffffffffffff168152602001908152602001600020541015610bef576040517f08c379a0000000000000000000000000000000000000000000000000000000008152600401610be690612147565b60405180910390fd5b80600560008473ffffffffffffffffffffffffffffffffffffffff1673ffffffffffffffffffffffffffffffffffffffff1681526020019081526020016000206000828254610c3e9190612167565b925050819055508060046000828254610c579190612167565b9250508190555060028360040160006101000a81548160ff02191690836003811115610c8657610c85611714565b5b02179055508173ffffffffffffffffffffffffffffffffffffffff1683600001547f03dd45741933c3eb69f3c5620ae7ba3cf533a19d2ad8fb3d902c5a266341f8388386600301604051610cdb92919061221f565b60405180910390a350505b5050565b60075481565b60028054610cfd90611aef565b80601f0160208091040260200160405190810160405280929190818152602001828054610d2990611aef565b8015610d765780601f10610d4b57610100808354040283529160200191610d76565b820191906000526020600020905b815481529060010190602001808311610d5957829003601f168201915b505050505081565b600073ffffffffffffffffffffffffffffffffffffffff168473ffffffffffffffffffffffffffffffffffffffff1603610ded576040517f08c379a0000000000000000000000000000000000000000000000000000000008152600401610de49061229b565b60405180910390fd5b82600560003373ffffffffffffffffffffffffffffffffffffffff1673ffffffffffffffffffffffffffffffffffffffff168152602001908152602001600020541015610e6f576040517f08c379a0000000000000000000000000000000000000000000000000000000008152600401610e6690612307565b60405180910390fd5b600060096000815480929190610e8490611c27565b9190505590506000600860008381526020019081526020016000209050818160000181905550338160010160006101000a81548173ffffffffffffffffffffffffffffffffffffffff021916908373ffffffffffffffffffffffffffffffffffffffff160217905550858160020160006101000a81548173ffffffffffffffffffffffffffffffffffffffff021916908373ffffffffffffffffffffffffffffffffffffffff1602179055508481600301819055508383826004019182610f4c929190611e55565b5060008160050160006101000a81548160ff02191690836003811115610f7557610f74611714565b5b02179055508573ffffffffffffffffffffffffffffffffffffffff163373ffffffffffffffffffffffffffffffffffffffff16837f1f0180d5edab24bcb2542f0e9391344753488ac606b1a27c8ed3bb0a67176720888888604051610fdc93929190612363565b60405180910390a4505050505050565b600660003373ffffffffffffffffffffffffffffffffffffffff1673ffffffffffffffffffffffffffffffffffffffff16815260200190815260200160002060009054906101000a900460ff16611078576040517f08c379a000000000000000000000000000000000000000000000000000000000815260040161106f90611f71565b60405180910390fd5b600060086000838152602001908152602001600020905060008160000154036110d6576040517f08c379a00000000000000000000000000000000000000000000000000000000081526004016110cd906123e1565b60405180910390fd5b600060038111156110ea576110e9611714565b5b8160050160009054906101000a900460ff16600381111561110e5761110d611714565b5b1461114e576040517f08c379a000000000000000000000000000000000000000000000000000000000815260040161114590612049565b60405180910390fd5b8060070160003373ffffffffffffffffffffffffffffffffffffffff1673ffffffffffffffffffffffffffffffffffffffff16815260200190815260200160002060009054906101000a900460ff16156111dd576040517f08c379a00000000000000000000000000000000000000000000000000000000081526004016111d4906120b5565b60405180910390fd5b60018160070160003373ffffffffffffffffffffffffffffffffffffffff1673ffffffffffffffffffffffffffffffffffffffff16815260200190815260200160002060006101000a81548160ff02191690831515021790555080600601600081548092919061124c90611c27565b91905055503373ffffffffffffffffffffffffffffffffffffffff16827fa4269914b1afdc8f7e4c3aa6794f0de6e37f00884fb97ea9288a1d68ba7de67b60405160405180910390a36007548160060154106114b65760018160050160006101000a81548160ff021916908360038111156112ca576112c9611714565b5b021790555060008160010160009054906101000a900473ffffffffffffffffffffffffffffffffffffffff16905060008260020160009054906101000a900473ffffffffffffffffffffffffffffffffffffffff16905060008360030154905080600560008573ffffffffffffffffffffffffffffffffffffffff1673ffffffffffffffffffffffffffffffffffffffff1681526020019081526020016000205410156113ac576040517f08c379a00000000000000000000000000000000000000000000000000000000081526004016113a390612473565b60405180910390fd5b80600560008573ffffffffffffffffffffffffffffffffffffffff1673ffffffffffffffffffffffffffffffffffffffff16815260200190815260200160002060008282546113fb9190612167565b9250508190555080600560008473ffffffffffffffffffffffffffffffffffffffff1673ffffffffffffffffffffffffffffffffffffffff16815260200190815260200160002060008282546114519190612493565b9250508190555060028460050160006101000a81548160ff021916908360038111156114805761147f611714565b5b0217905550847ffd987fd5c7de5139db194fdde15ddabcec1b78c3bfc832ad563ac57a9bfa9b3660405160405180910390a25050505b5050565b60008054906101000a900473ffffffffffffffffffffffffffffffffffffffff1673ffffffffffffffffffffffffffffffffffffffff163373ffffffffffffffffffffffffffffffffffffffff1614611548576040517f08c379a000000000000000000000000000000000000000000000000000000000815260040161153f90612513565b60405180910390fd5b6001600660008373ffffffffffffffffffffffffffffffffffffffff1673ffffffffffffffffffffffffffffffffffffffff16815260200190815260200160002060006101000a81548160ff02191690831515021790555050565b60008054906101000a900473ffffffffffffffffffffffffffffffffffffffff1681565b600080fd5b600080fd5b6000819050919050565b6115e4816115d1565b81146115ef57600080fd5b50565b600081359050611601816115db565b92915050565b60006020828403121561161d5761161c6115c7565b5b600061162b848285016115f2565b91505092915050565b61163d816115d1565b82525050565b600073ffffffffffffffffffffffffffffffffffffffff82169050919050565b600061166e82611643565b9050919050565b61167e81611663565b82525050565b600081519050919050565b600082825260208201905092915050565b60005b838110156116be5780820151818401526020810190506116a3565b60008484015250505050565b6000601f19601f8301169050919050565b60006116e682611684565b6116f0818561168f565b93506117008185602086016116a0565b611709816116ca565b840191505092915050565b7f4e487b7100000000000000000000000000000000000000000000000000000000600052602160045260246000fd5b6004811061175457611753611714565b5b50565b600081905061176582611743565b919050565b600061177582611757565b9050919050565b6117858161176a565b82525050565b600060e0820190506117a0600083018a611634565b6117ad6020830189611675565b6117ba6040830188611675565b6117c76060830187611634565b81810360808301526117d981866116db565b90506117e860a083018561177c565b6117f560c0830184611634565b98975050505050505050565b6000602082019050818103600083015261181b81846116db565b905092915050565b61182c81611663565b811461183757600080fd5b50565b60008135905061184981611823565b92915050565b600060208284031215611865576118646115c7565b5b60006118738482850161183a565b91505092915050565b60006020820190506118916000830184611634565b92915050565b600080fd5b600080fd5b600080fd5b60008083601f8401126118bc576118bb611897565b5b8235905067ffffffffffffffff8111156118d9576118d861189c565b5b6020830191508360018202830111156118f5576118f46118a1565b5b9250929050565b600080600060408486031215611915576119146115c7565b5b6000611923868287016115f2565b935050602084013567ffffffffffffffff811115611944576119436115cc565b5b611950868287016118a6565b92509250509250925092565b600060ff82169050919050565b6119728161195c565b82525050565b600060208201905061198d6000830184611969565b92915050565b600060c0820190506119a86000830189611634565b6119b56020830188611675565b6119c26040830187611634565b81810360608301526119d481866116db565b90506119e3608083018561177c565b6119f060a0830184611634565b979650505050505050565b60008115159050919050565b611a10816119fb565b82525050565b6000602082019050611a2b6000830184611a07565b92915050565b60008060008060608587031215611a4b57611a4a6115c7565b5b6000611a598782880161183a565b9450506020611a6a878288016115f2565b935050604085013567ffffffffffffffff811115611a8b57611a8a6115cc565b5b611a97878288016118a6565b925092505092959194509250565b6000602082019050611aba6000830184611675565b92915050565b7f4e487b7100000000000000000000000000000000000000000000000000000000600052602260045260246000fd5b60006002820490506001821680611b0757607f821691505b602082108103611b1a57611b19611ac0565b5b50919050565b7f4f6e6c792061646d696e2063616e2072656d6f7665207369676e657273000000600082015250565b6000611b56601d8361168f565b9150611b6182611b20565b602082019050919050565b60006020820190508181036000830152611b8581611b49565b9050919050565b7f496e73756666696369656e742062616c616e636520746f206275726e00000000600082015250565b6000611bc2601c8361168f565b9150611bcd82611b8c565b602082019050919050565b60006020820190508181036000830152611bf181611bb5565b9050919050565b7f4e487b7100000000000000000000000000000000000000000000000000000000600052601160045260246000fd5b6000611c32826115d1565b91507fffffffffffffffffffffffffffffffffffffffffffffffffffffffffffffffff8203611c6457611c63611bf8565b5b600182019050919050565b600082905092915050565b7f4e487b7100000000000000000000000000000000000000000000000000000000600052604160045260246000fd5b60008190508160005260206000209050919050565b60006020601f8301049050919050565b600082821b905092915050565b600060088302611d0b7fffffffffffffffffffffffffffffffffffffffffffffffffffffffffffffffff82611cce565b611d158683611cce565b95508019841693508086168417925050509392505050565b6000819050919050565b6000611d52611d4d611d48846115d1565b611d2d565b6115d1565b9050919050565b6000819050919050565b611d6c83611d37565b611d80611d7882611d59565b848454611cdb565b825550505050565b600090565b611d95611d88565b611da0818484611d63565b505050565b5b81811015611dc457611db9600082611d8d565b600181019050611da6565b5050565b601f821115611e0957611dda81611ca9565b611de384611cbe565b81016020851015611df2578190505b611e06611dfe85611cbe565b830182611da5565b50505b505050565b600082821c905092915050565b6000611e2c60001984600802611e0e565b1980831691505092915050565b6000611e458383611e1b565b9150826002028217905092915050565b611e5f8383611c6f565b67ffffffffffffffff811115611e7857611e77611c7a565b5b611e828254611aef565b611e8d828285611dc8565b6000601f831160018114611ebc5760008415611eaa578287013590505b611eb48582611e39565b865550611f1c565b601f198416611eca86611ca9565b60005b82811015611ef257848901358255600182019150602085019450602081019050611ecd565b86831015611f0f5784890135611f0b601f891682611e1b565b8355505b6001600288020188555050505b50505050505050565b7f4f6e6c79207369676e6572732063616e20617070726f76650000000000000000600082015250565b6000611f5b60188361168f565b9150611f6682611f25565b602082019050919050565b60006020820190508181036000830152611f8a81611f4e565b9050919050565b7f4275726e207265717565737420646f6573206e6f742065786973740000000000600082015250565b6000611fc7601b8361168f565b9150611fd282611f91565b602082019050919050565b60006020820190508181036000830152611ff681611fba565b9050919050565b7f52657175657374206973206e6f742070656e64696e6700000000000000000000600082015250565b600061203360168361168f565b915061203e82611ffd565b602082019050919050565b6000602082019050818103600083015261206281612026565b9050919050565b7f5369676e65722068617320616c726561647920617070726f7665640000000000600082015250565b600061209f601b8361168f565b91506120aa82612069565b602082019050919050565b600060208201905081810360008301526120ce81612092565b9050919050565b7f557365722062616c616e6365206368616e6765642c206275726e206661696c6560008201527f6400000000000000000000000000000000000000000000000000000000000000602082015250565b600061213160218361168f565b915061213c826120d5565b604082019050919050565b6000602082019050818103600083015261216081612124565b9050919050565b6000612172826115d1565b915061217d836115d1565b925082820390508181111561219557612194611bf8565b5b92915050565b600081546121a881611aef565b6121b2818661168f565b945060018216600081146121cd57600181146121e357612216565b60ff198316865281151560200286019350612216565b6121ec85611ca9565b60005b8381101561220e578154818901526001820191506020810190506121ef565b808801955050505b50505092915050565b60006040820190506122346000830185611634565b8181036020830152612246818461219b565b90509392505050565b7f43616e6e6f74207472616e7366657220746f207a65726f206164647265737300600082015250565b6000612285601f8361168f565b91506122908261224f565b602082019050919050565b600060208201905081810360008301526122b481612278565b9050919050565b7f496e73756666696369656e742062616c616e6365000000000000000000000000600082015250565b60006122f160148361168f565b91506122fc826122bb565b602082019050919050565b60006020820190508181036000830152612320816122e4565b9050919050565b82818337600083830152505050565b6000612342838561168f565b935061234f838584612327565b612358836116ca565b840190509392505050565b60006040820190506123786000830186611634565b818103602083015261238b818486612336565b9050949350505050565b7f5265717565737420646f6573206e6f7420657869737400000000000000000000600082015250565b60006123cb60168361168f565b91506123d682612395565b602082019050919050565b600060208201905081810360008301526123fa816123be565b9050919050565b7f53656e6465722062616c616e6365206368616e6765642c207472616e7366657260008201527f206661696c656400000000000000000000000000000000000000000000000000602082015250565b600061245d60278361168f565b915061246882612401565b604082019050919050565b6000602082019050818103600083015261248c81612450565b9050919050565b600061249e826115d1565b91506124a9836115d1565b92508282019050808211156124c1576124c0611bf8565b5b92915050565b7f4f6e6c792061646d696e2063616e20616464207369676e657273000000000000600082015250565b60006124fd601a8361168f565b9150612508826124c7565b602082019050919050565b6000602082019050818103600083015261252c816124f0565b905091905056fea2646970667358221220767e64ef907b884087ea9cba385ac5a316a6b5a3d3f33efbfcc2644bc875847264736f6c63430008140033",
  "linkReferences": {},
  "deployedLinkReferences": {}
}